:100000000C9434000C9451000C9451000C94510049
:100010000C9451000C9451000C9451000C9451001C
:100020000C9451000C9451000C9451000C9451000C
:100030000C9451000C9451000C942F010C9451001D
:100040000C9451000C9451000C94B9000C94840051
:100050000C9451000C9451000C9451000C945100DC
:100060000C9451000C94510011241FBECFEFD8E026
:10007000DEBFCDBF11E0A0E0B1E0E8E4F3E002C0F4
:1000800005900D92A632B107D9F721E0A6E2B1E0C2
:1000900001C01D92AF3CB207E1F70E946F010C94C2
:1000A000A2010C9400002091260130E02F5F3F4F09
:1000B0002F73332790912701921769F0E091260161
:1000C000F0E0E85DFE4F8083209326018091C1001F
:1000D00080628093C1000895CF93DF93EC018991F2
:1000E000811103C0DF91CF9108950E945300F7CF93
:1000F0001092C50087E68093C40088E08093C10019
:1001000086E08093C20008958F938FB78F939F935B
:10011000EF93FF93909126018091270198130CC0D3
:100120008091C1008F7D8093C100FF91EF919F91DD
:100130008F918FBF8F911895E0912701F0E0E85DD6
:10014000FE4F80818093C6008091270190E0019648
:100150008F73992780932701E8CF80E98093C100AE
:100160001092C50087E68093C40086E08093C200A9
:1001700008952F932FB72F933F938F939F93EF93D0
:10018000FF932091C60080918A0190E001968F73C1
:10019000992730918901381741F0E0918A01F0E008
:1001A000E557FE4F208380938A01FF91EF919F9145
:1001B0008F913F912F912FBF2F91189520918A01F8
:1001C0009091890181E0291301C080E00895909108
:1001D0008A0180918901981781F0E0918901F0E00E
:1001E000E557FE4F80812091890130E02F5F3F4F1E
:1001F0002F73332720938901089580E00895CF93CA
:100200000E94DE00C82F811571F00E94E700E09186
:1002100068018A3011F08D3049F4F0E0E759FE4F63
:100220001082109268018C2FCF910895EF3140F722
:1002300091E09E0F90936801F0E0E759FE4F8083B4
:10024000DFCF84B5826084BD85B5836085BD89EFCD
:1002500087BDEEE6F0E080818260808308951F9282
:100260001FB61F9211248F939F93AF93BF938091DA
:10027000CB019091CC01A091CD01B091CE0101961E
:10028000A11DB11D8093CB019093CC01A093CD0112
:10029000B093CE01BF91AF919F918F911F901FBEE0
:1002A0001F9018950F931F931092CB011092CC01C1
:1002B0001092CD011092CE010091CB011091CC0192
:1002C0002091CD013091CE0141E006171707280794
:1002D000390709F440E0842F1F910F9108950E947F
:1002E00078000E94AD000E942101259A249A7894FA
:1002F00080E091E00E946C000E94FF008115C1F334
:100300006FE071E089E691E00E949901892B81F309
:1003100085E191E00E946C002D9A2C9A68EE73E0C2
:1003200080E090E00E945201811511F32D982C98E5
:10033000DFCFFB01DC018D91019080190110D9F311
:08034000990B0895F894FFCF1A
:1003480068656C6C6F20776F726C64210D0A0068A9
:10035800656C6C6F007561727420736574757020BC
:06036800646F6E652100C8
:00000001FF
